:100000000C94AD060C94F1060C94F1060C94F106D8
:100010000C94F1060C94F1060C94F1060C94F10684
:100020000C94F1060C94F1060C945B0E0C942D0FBD
:100030000C94331E0C94F1060C94F1060C94F1060A
:100040000C94F1060C94F1060C94F1060C94F10654
:100050000C94F1060C94A61E0C94F1060C94F10677
:100060000C94F1060C94F1060C94F1060C94F10634
:100070000C94F1060C94F1060C94F1060C94F10624
:100080000C94F1060C94F1060C94F1060C94F10614
:100090000C94F1060C94F1060C94F1060C94F10604
:1000A0000C94F1060C94F1060C94F106920FB40F27
:1000B0009F10B40F9F10F60F19109F106E10811033
:1000C000F513F513231423147F14BB1428172817D2
:1000D000D3142817CA15CA159816AC162817161760
:1000E00014001A000800150017001C0018000C006E
:1000F0001200130004001600070009000A000B009C
:100100000D000E000F0028001D211B32063419A41B
:1001100029A22CA105A511A310312A001E001F0041
:1001200020002100220023002400250026002700B3
:100130003A003B003C003D003E003F0040004100D3
:100140004200430001000100010001004C000100D9
:1001500001000100010001001E021F022002210215
:100160002202230224022502260227022D002E024B
:1001700034003402380031003700360052003300BA
:100180002D022E003802310201000100330250001E
:1001900051004F00010001000100010001000100B9
:1001A000010001002F0030002B00010001000100C0
:1001B0000100010001000100010001000100010037
:1001C0000100010001000100010001000100010027
:1001D0000100010001000100010001000100010017
:1001E0002F0230022B00010001000100010001007C
:1001F00001000100010001000100010001000100F7
:10020000010001004A004E004B004D00924523467C
:100210008A4594454600010001000100360237027C
:1002200001000100010001000100010001000100C6
:1002300000D100D00100010001000100BF00010059
:1002400001000100010001000A0025303136620082
:100250003A200025303258000A722F6320303132A4
:10026000333435363738394142434445460A000A6B
:10027000002530325800626F756E6365213A2000A8
:100280004B6579626F6172642073746172742E0AB7
:100290000055534220636F6E666967757265642E00
:1002A0000A000D0A696E69740A005B445D005B43D5
:1002B0005D002A03540068006500200067006800A4
:1002C000650072006B0069006E0020004B00650045
:1002D000790062006F0061007200640000000C038E
:1002E0006400690030006900620000000403090432
:1002F00009028D00050100A032090400000103017C
:1003000001000921110100012240000705810308B5
:10031000000A090401000103010200092111010082
:1003200001224D000705820308000A0904020001AA
:100330000300000009211101000122360007058396
:100340000308000A09040300020300000009211148
:100350000100012222000705840320000107050493
:100360000320000109040400010300000009211119
:100370000100012239000705850320000112011048
:100380000100000008EDFE0C0A70000102000105EA
:10039000010906A101050719E029E71500250195C6
:1003A0000875018102050819012905950575019156
:1003B000029501750391010507190029F71500251C
:1003C0000195F875018102C00631FF0974A1010988
:1003D00075150026FF009520750881020976150025
:1003E00026FF00952075089102C005010980A10132
:1003F000850216810026B7001A81002AB700751001
:1004000095018100C0050C0901A1018503160100B9
:10041000269C021A01002A9C02751095018100C0D9
:1004200005010902A1010901A10005091901290518
:10043000150025019505750181029501750381015E
:100440000501093009311581257F9502750881065E
:1004500009381581257F950175088106050C0A3834
:10046000021581257F950175088106C0C005010927
:1004700006A101050719E029E71500250195087572
:100480000181029501750881010508190129059569
:100490000575019102950175039101050719002960
:1004A000FF150026FF00950675088100C0636F6E7A
:1004B00073756D65723A20253034580A007379736C
:1004C00074656D3A20253034580A000A0025303210
:1004D0005820006B6579626F6172643A20004C4568
:1004E000443A20253032580A0064656C5F6B6579A8
:1004F0005F6269743A2063616E27742064656C3AA8
:1005000020253032580A006164645F6B65795F6250
:1005100069743A2063616E2774206164643A20250F
:100520003032580A00646F6E652E0A00626F6F7475
:100530006D61676963207363616E3A202E2E2E20F1
:1005400000290A002575002F002575005D2800256B
:10055000640020002564002000256400200025643C
:10056000007C0025303258006D6F7573656B6579BE
:10057000205B62746E7C782079207620685D28721A
:1005800065702F61636C293A205B006D6B5F776843
:1005900065656C5F74696D655F746F5F6D61782010
:1005A0003D2025640A006D6B5F776865656C5F6D43
:1005B00061785F7370656564203D2025640A006D75
:1005C0006B5F74696D655F746F5F6D6178203D204E
:1005D00025640A006D6B5F6D61785F73706565649B
:1005E000203D2025640A006D6B5F696E746572762C
:1005F000616C203D2025640A006D6B5F64656C6151
:1006000079203D2025640A006D6B5F776865656C15
:100610005F74696D655F746F5F6D6178203D202543
:10062000640A006D6B5F776865656C5F6D61785F0C
:100630007370656564203D2025640A006D6B5F74EE
:10064000696D655F746F5F6D6178203D2025640A78
:10065000006D6B5F6D61785F7370656564203D2030
:1006600025640A006D6B5F696E74657276616C203B
:100670003D2025640A006D6B5F64656C6179203DE7
:100680002025640A000A00257500363A207768653F
:10069000656C5F74696D655F746F5F6D61783A203A
:1006A000000A00257500353A20776865656C5F6D36
:1006B00061785F73706565643A20000A00257500F3
:1006C000343A2074696D655F746F5F6D61783A20AC
:1006D000000A00257500333A206D61785F737065FC
:1006E00065643A20000A00257500323A20696E746C
:1006F000657276616C286D73293A20000A002575B1
:1007000000313A2064656C6179282A31306D732993
:100710003A20000A092D2056616C756573202D0A58
:10072000004D3E004D25643E20003F00736574205F
:1007300064656661756C740A00433E2000776865E5
:1007400072652064656C74613A20637572736F72B0
:100750003D25642C20776865656C3D25640A5365EA
:100760006520687474703A2F2F656E2E77696B69F7
:1007700070656469612E6F72672F77696B692F4DA1
:100780006F7573655F6B6579730A000A092D204DDB
:100790006F7573656B6579202D0A4553432F713A48
:1007A00009717569740A313A0964656C6179282A9E
:1007B00031306D73290A323A09696E746572766157
:1007C0006C286D73290A333A096D61785F7370651F
:1007D00065640A343A0974696D655F746F5F6D61B1
:1007E000780A353A09776865656C5F6D61785F7383
:1007F000706565640A363A09776865656C5F746987
:100800006D655F746F5F6D61780A0A703A09707286
:10081000696E742076616C7565730A643A09736554
:10082000742064656661756C74730A75703A092B7F
:10083000310A646F776E3A092D310A706775703A24
:10084000092B31300A7067646F776E3A092D3130A9
:100850000A0A7370656564203D2064656C746120CC
:100860002A206D61785F7370656564202A20287284
:100870006570656174202F2074696D655F746F5FAA
:100880006D6178290A003F004D3E2000433E200064
:100890004C25640A000A092D20436F6E736F6C6546
:1008A000202D0A4553432F713A09717569740A6DF9
:1008B0003A096D6F7573656B65790A000A092D2019
:1008C0004D61676963202D0A643A09646562756742
:1008D0000A783A096465627567206D617472697897
:1008E0000A6B3A096465627567206B6579626F61AE
:1008F00072640A6D3A096465627567206D6F75737D
:10090000650A763A0976657273696F6E0A733A09F9
:100910007374617475730A633A09636F6E736F6CF5
:1009200065206D6F64650A302D343A096C61796514
:1009300072302D34284631302D4634290A506175E5
:10094000733A09626F6F746C6F616465720A653A1D
:1009500009656570726F6D0A6E3A094E4B524F0A07
:10096000000A002575002E6C6576656C3A20000A39
:10097000002575002E656E61626C653A20000A00E4
:1009800025303258006261636B6C696768745F631D
:100990006F6E6669672E7261773A20000A002575CE
:1009A000002E6E6B726F3A20000A002575002E73C0
:1009B0007761705F6261636B736C6173685F6261C2
:1009C000636B73706163653A20000A002575002E21
:1009D000737761705F67726176655F6573633A20F4
:1009E000000A002575002E6E6F5F6775693A20005A
:1009F0000A002575002E737761705F72616C745FF9
:100A0000726775693A20000A002575002E737761B8
:100A1000705F6C616C745F6C6775693A20000A00E6
:100A20002575002E636170736C6F636B5F746F5F0D
:100A3000636F6E74726F6C3A20000A002575002E89
:100A4000737761705F636F6E74726F6C5F636170F8
:100A5000736C6F636B3A20000A0025303258006BCC
:100A600065796D61705F636F6E6669672E7261771D
:100A70003A20000A002575002E6D6F7573653A20C7
:100A8000000A002575002E6B6579626F6172643A09
:100A900020000A002575002E6D61747269783A2075
:100AA000000A002575002E656E61626C653A2000B3
:100AB0000A00253032580064656275675F636F6EA7
:100AC0006669672E7261773A20000A002575006416
:100AD000656661756C745F6C617965723A20003F80
:100AE000004E4B524F3A206F66660A004E4B524FF3
:100AF0003A206F6E0A0074696D65725F7265616499
:100B0000333228293A202530346C580A006B657935
:100B1000626F6172645F6E6B726F3A2025580A00D3
:100B20006B6579626F6172645F69646C653A2025F8
:100B3000580A006B6579626F6172645F70726F74DE
:100B40006F636F6C3A2025580A00686F73745F6B8F
:100B50006579626F6172645F6C65647328293A20FD
:100B600025580A000A092D20537461747573202DCD
:100B70000A004743433A20342E382E322041565241
:100B80002D4C4942433A20312E382E3020415652C6
:100B90005F415243483A20617672350A004F505403
:100BA000494F4E533A204C55464120424F4F544DE9
:100BB00041474943204D4F5553454B4559204558D2
:100BC0005452414B455920434F4E534F4C452043BF
:100BD0004F4D4D414E44204E4B524F20343039360C
:100BE0000A004255494C443A206638386638323853
:100BF000202830313A35393A3233204A756C20207A
:100C0000362032303137290A005649443A203078AC
:100C10004645454428646930696229205049443A70
:100C20002030783041304328546865206768657209
:100C30006B696E204B6579626F617264292056453D
:100C4000523A203078303037300A00444553433A26
:100C50002041203330206B6579206B6579626F61AC
:100C600072640A000A092D2056657273696F6E203E
:100C70002D0A000A6D6F7573653A206F66660A006B
:100C80000A6D6F7573653A206F6E0A000A6B65799D
:100C9000626F6172643A206F66660A000A6B65795A
:100CA000626F6172643A206F6E0A000A6D6174723D
:100CB00069783A206F66660A000A6D617472697815
:100CC0003A206F6E0A000A64656275673A206F6E9B
:100CD0000A000A64656275673A206F66660A000A50
:100CE0000A626F6F746C6F616465722E2E2E200025
:100CF000433E20006565636F6E6669673A0A00626D
:100D000061636B6C6967687420737465703A202541
:100D1000750A006261636B6C6967687420746F6741
:100D2000676C653A2025750A006261636B6C6967C0
:100D300068742064656372656173653A2025750A7D
:100D4000006261636B6C6967687420696E637265C9
:100D50006173653A2025750A000011241FBECFEF8C
:100D6000DAE0DEBFCDBF04B603FE24C08091F901F6
:100D70009091FA01A091FB01B091FC018730904B5A
:100D8000A740B04BB9F41092F9011092FA011092F9
:100D9000FB011092FC0114BE84B7877F84BF88E1F9
:100DA0000FB6F89480936000109260000FBEE0E0F0
:100DB000F8E3099511E0A0E0B1E0EAECF6E502C045
:100DC00005900D92A833B107D9F711E0A8E3B1E07F
:100DD00001C01D92A93FB107E1F70E948E0B0C9450
:100DE000632B0C940000FF93EF93E0913801F09196
:100DF0003901309709F00995EF91FF910895FC01B1
:100E00008591803011F0EFDFFBCF0895FF27E0E2FE
:100E100030E247FF0CC0419597FF09C0EDE26095B5
:100E2000709580959095611D711D811D911D27FF05
:100E300002C0219530E350E2AA27660F771F881F72
:100E4000991FAA1FA41710F0A41B63955A95A9F720
:100E5000AA3008F0A95FA05DAF93F3956115710505
:100E60008105910541F7ED3211F4EF93F395F217F7
:100E700018F43F93F395FBCF8F91B5DFFA95E1F727
:100E80000895E991F9918591803021F0853219F02A
:100E9000AADFF9CF089520E0E89455915532C1F3C7
:100EA000503311F4689455915A3348F4505390F3E9
:100EB000220F022E220F220F200D250FF4CF0EF449
:100EC000219589919991533619F3533729F1533567
:100ED00059F1BC0188279927E8945C3621F489915F
:100EE000999168945591543639F446EF7EF077FF26
:100EF0000DC08FEF9FEF0AC055374AE039F05835E3
:100F000040E121F0523642E009F00895FF93EF935B
:100F10007DDFEF91FF91B7CFFF93EF93FC018191BC
:100F20008030B9F360DFFBCFFF93EF9368DFF1CF41
:100F3000DF93CF93CDB7DEB72596A3DFCF91DF91B7
:100F4000089587988F9884B1817B84B985B1817B1E
:100F500085B9089585B7806885BF85B7806885BFE6
:100F60000E94C6080E94A1078AB18E768AB98BB109
:100F700081698BB924982C9A3E98469A6E98769AF5
:100F8000EFE3F1E0AAE3B1E011921D9281E0E434D5
:100F9000F807D1F70895DF92EF92FF920F931F9316
:100FA000CF93DF93CAE3D1E010E001E085E0D82ED3
:100FB00091E7E92E92E0F92E123081F028F41130F9
:100FC00081F4219A29980FC0133029F0143049F484
:100FD000269A2E9808C0229A2A9805C0239A2B9800
:100FE00002C0879A8F9880EA8A95F1F7489B02C0E1
:100FF00050E001C050E24C9B02C040E001C040E123
:10100000369B02C030E001C038E099B19095991F3D
:101010009927991F990F990F669B02C020E001C084
:1010200022E083B1829581708027852B842B832BCE
:10103000892B822B9881981739F188838091000140
:10104000882301F18091D90180FF04C086E792E0F6
:101050000E94FF068091D90180FF0CC080910001A1
:101060001F928F93FF92EF920E9498070F900F901C
:101070000F900F908091D90180FF04C08FE692E01D
:101080000E94FF06D09200010E94A1071F5F2196D7
:10109000153009F091CF809100018823B1F0815083
:1010A00080930001882339F08FE99FE00197F1F7E1
:1010B00000C000000AC0AFE3B1E0EAE3F1E08191D3
:1010C0008D9391E0EF33F907D1F781E0DF91CF9174
:1010D0001F910F91FF90EF90DF900895E82FF0E0BF
:1010E000E15CFE4F80810895CF92DF92EF92FF92F4
:1010F0000F931F93CF93DF9388E592E00E94FF0642
:101100002FE3E22E21E0F22EC0E0D0E033E5C32E43
:1011100032E0D32E0AE412E0DF93CF93DF92CF9236
:101120000E94980780E592E00E94FF06F7018191F6
:101130007F0190E00E94C31D9F938F931F930F9395
:101140000E94980788E492E00E94FF0621968DB7DE
:101150009EB708960FB6F8949EBF0FBE8DBFC530E0
:10116000D105D1F6DF91CF911F910F91FF90EF90B4
:10117000DF90CF90089581FF04C0209A2898559A57
:1011800003C02098289855985D980895259A2D9821
:1011900082E88093800089E1809381008FEF9FEF48
:1011A00090938700809386001092890010928800A7
:1011B0000C94F22881110BC0809180008F7780936E
:1011C000800010928900109288002D9808952D9823
:1011D000843041F4809180008068809380008FEF9C
:1011E0009FEF12C09091800090689093800024E05F
:1011F00030E0281B3109220F331F8FEF9FEF02C011
:10120000969587952A95E2F79093890080938800B8
:1012100008958091680108959FB7F894109247014E
:101220009FBF9091EE01943009F058C09091E90071
:101230009F702091EC0020FF02C020E801C020E058
:10124000292B94E09093E9009091EB0090FF43C02C
:101250009091EE0097FF3FC090914401992321F0B7
:101260009091E80095FF37C01092440196E03091CC
:10127000E80035FD15C03091EE01343061F5309154
:10128000EB0035FD28C0915021F481E080934401AA
:1012900022C0EFE9FFE03197F1F700C00000E7CF8F
:1012A0008093F1008091E80085FD0AC08091E800FC
:1012B00080FFFCCF8091E8008E778093E80006C025
:1012C0008FB7F89491E0909347018FBF2F702093D0
:1012D000E90080E008952F702093E9008FEF0895D2
:1012E000CF93DF9300D01F92CDB7DEB72091EE01F0
:1012F000243019F523E029839B838A832093E90016
:101300008FEF9091E800815095FD06C095ED9A957C
:10131000F1F700008111F5CF8091E80085FF0DC045
:1013200040E050E063E070E0CE0101960E944E0C78
:101330008091E8008E778093E8000F900F900F90D7
:10134000DF91CF910895CF93DF9300D01F92CDB757
:10135000DEB72091EE01243021F522E029839B8322
:101360008A8383E08093E9008FEF9091E8008150B9
:1013700095FD06C095ED9A95F1F700008111F5CF26
:101380008091E80085FF0DC040E050E063E070E030
:10139000CE0101960E944E0C8091E8008E778093DA
:1013A000E8000F900F900F90DF91CF91089520915A
:1013B000EE012430F1F422E02093E9002FEF309188
:1013C000E800215035FD06C035ED3A95F1F70000F3
:1013D0002111F5CF2091E80025FF0BC040E050E03F
:1013E00065E070E00E944E0C8091E8008E7780935B
:1013F000E8000895CF93DF93EC018091EE018430F3
:1014000009F047C080910B018823E1F080910C0125
:101410008823C1F085E08093E9008FEF9091E80088
:10142000815095FD06C095E19A95F1F70000811174
:10143000F5CF8091E80085FF2CC040E050E060E2ED
:1014400070E017C081E08093E9008FEF9091E80091
:10145000815095FD06C095ED9A95F1F70000811138
:10146000F5CF8091E80085FF14C040E050E068E0CF
:1014700070E0CE010E944E0C8091E8008E77809340
:10148000E80080E2FE01A8E4B1E001900D928A95A7
:10149000E1F7DF91CF9108958EEA92E00E94FF0676
:1014A0008091ED01811109C00E94E00D0E943D0E66
:1014B0008091E20084608093E20008958AEA92E0DD
:1014C0000E94FF061092ED01089508958091450154
:1014D0008F5F8093450162E30E94F82A911135C025
:1014E0001092450180914701882379F18091EE01A6
:1014F000843049F58091E9008F709091EC0090FF65
:1015000002C090E801C090E0982B84E08093E9004D
:101510008091EB0080FF14C08091EE0087FF10C027
:101520008091E80085FF03C01092F100F9CF80910F
:10153000E80080FF05C08091E8008E778093E80086
:101540009F709093E90010924701089542E061EC8A
:1015500081E00E945A0D42E061EC82E00E945A0D47
:1015600042E061EC83E00E945A0D42E261EC84E0CB
:101570000E945A0D42E261EC85E00C945A0D809174
:10158000F001833009F455C030F4813071F08230BD
:1015900009F48EC008958A3009F47AC08B3009F4BA
:1015A00060C0893009F09CC020C08091EF01813A71
:1015B00009F096C08091E800877F8093E8008091D1
:1015C000F3019091F401892B21F060E080E090E03C
:1015D00003C060E288E491E070E00E94970C809183
:1015E000E8008B778093E80008958091EF018132C5
:1015F00009F076C08091F3019091F401009719F001
:10160000049709F06DC08091E800877F8093E8001F
:101610008091E80082FD05C08091EE018111F8CF34
:101620005FC08091F100809368018091E8008B7722
:1016300053C08091EF01813A09F052C08091F301CB
:101640009091F401892B09F04BC08091E800877FCD
:101650008093E8008091E80080FFFCCF80910B012F
:1016600036C08091EF018132D9F58091F3019091DC
:10167000F401892BA9F58091E800877F8093E80029
:101680000E948F0D8091F10180930B010C944917FA
:101690008091EF01813221F58091E800877F80936E
:1016A000E8000E948F0D8091F201809369010895F6
:1016B0008091EF01813AA1F48091E800877F8093C7
:1016C000E8008091E80080FFFCCF80916901809361
:1016D000F1008091E8008E778093E8000C948F0DE4
:1016E00008950895089580916801809346011092AD
:1016F000680180E00E94BB080E943D120C944917CB
:101700000C94730B0E94F21D8091EC01882329F048
:101710000E94181E81110C94380C089584B7877F9D
:1017200084BF88E10FB6F894809360001092600047
:101730000FBE90E080E80FB6F8948093610090931C
:1017400061000FBE8CE099E00E94AC1D82EA92E03D
:101750000E94FF060E94710B0E9474110E94E00D0E
:101760000E943D0E8091E20084608093E2007894B4
:101770008091EE018430E1F781E992E00E94FF065A
:101780000E94761181E091E00E94B71080E892E01B
:101790000E94FF060E94720B8091EE01853019F4C1
:1017A0000E94820BF9CF0E947E11F6CF0E942D1E5F
:1017B000809146018093680108950C94D60B292FDF
:1017C000332723303105A9F06CF42130310509F4B9
:1017D00042C02230310509F043C08DE890E020EF8F
:1017E00032E042C021323105C9F02232310519F10F
:1017F00037C099278130910541F08230910541F041
:10180000892B71F5ECEEF2E005C0EEEDF2E002C0DE
:10181000E2EBF2E0849190E09F0126C0653000F594
:10182000E62FF0E0EE0FFF1FEC5DFE4F20813181CF
:1018300089E090E019C0653098F4E62FF0E0DF0110
:10184000AA0FBB1FA65EBE4F2D913C91EB5EFE4FD3
:10185000808190E009C082E190E02DE733E004C090
:1018600080E090E020E030E0FA01318320830895A9
:1018700080E189BD82E189BD09B400FEFDCF809180
:10188000D8008F7D8093D8008091E00082608093A3
:10189000E0008091E00081FDFCCF0895CF92DF92BF
:1018A000EF92FF920F931F93CF93DF937C018B01F5
:1018B000EA010E94B00D811131C0209731F088817A
:1018C0009981081B190BE80EF91EC12CD12C0115AA
:1018D000110519F18091E80085FD14C08091E800A0
:1018E0008E778093E800209741F0888199818C0D54
:1018F0009D1D9983888385E011C00E94B00D8823C7
:1019000031F30CC0F70181917F018093F100015008
:101910001109FFEFCF1ADF0ADACF80E0DF91CF9114
:101920001F910F91FF90EF90DF90CF90089520913D
:10193000F5013091F6012617370748F0611571055A
:1019400039F42091E8002E772093E80001C0B90116
:10195000FC0120E061157105B9F18091EE01882349
:1019600009F440C0853009F43FC08091E80083FD50
:101970003DC08091E80082FF06C08091E80082FFB0
:1019800026C080E008958091E80080FFE3CF209199
:10199000F3008091F20090E0922B6115710551F0F7
:1019A0008830910538F421912093F100615071093C
:1019B0000196F3CF21E0089709F020E08091E8003C
:1019C0008E778093E800C6CF2111C7CFD6CF809104
:1019D000EE01882339F0853039F08091E80083FFEB
:1019E000CCCF04C082E0089583E0089581E008959B
:1019F0002091F5013091F6012617370748F061155F
:101A0000710539F42091E8002E772093E80001C099
:101A1000B901FC0120E061157105C1F18091EE0171
:101A2000882309F441C0853009F440C08091E80062
:101A300083FD3EC08091E80082FF06C08091E800EF
:101A400082FF27C080E008958091E80080FFE3CF07
:101A50002091F3008091F20090E0922B61157105C6
:101A600059F08830910540F424912093F10031968B
:101A7000615071090196F2CF21E0089709F020E04A
:101A80008091E8008E778093E800C5CF2111C6CF02
:101A9000D5CF8091EE01882339F0853039F08091DF
:101AA000E80083FFCBCF04C082E0089583E008956F
:101AB00081E00895982F973058F59093E900981792
:101AC00039F07091EC002091ED005091F00003C0CE
:101AD000242F762F50E021FF19C03091EB003E7F7C
:101AE0003093EB003091ED003D7F3093ED0030916D
:101AF000EB0031603093EB007093EC002093ED002D
:101B00005093F0002091EE0027FF07C09F5FD3CFD6
:101B10008F708093E90081E0089580E008958091BE
:101B2000EF0187FD05C08091E80080FF0EC012C064
:101B30008091E80082FD05C08091EE018111F8CF0F
:101B400008958091E8008B7708C08091EE018111A3
:101B5000EACF08958091E8008E778093E800089599
:101B60008091E4009091E50045E62091EC0020FF93
:101B700021C02091E80020FD21C02091EE01222308
:101B800089F0253089F02091EB0025FD0FC02091D0
:101B9000E4003091E5002817390739F3415041F04E
:101BA000C901E3CF82E0089583E0089581E00895BC
:101BB00084E008952091E80022FFDFCF80E00895BF
:101BC0000E944E0E0E94560EE0EEF0E08081816091
:101BD0008083E8EDF0E080818F77808319BCA7EDEA
:101BE000B0E08C918E7F8C9380818F7E8083109269
:101BF000ED0108950F931F93CF93DF930E944E0E34
:101C00000E94560EC8EDD0E088818F778883888146
:101C10008068888388818F7D888319BC1092EE014B
:101C20001092EA011092EC011092EB0100EE10E02C
:101C3000F80180818B7F808388818160888342E086
:101C400060E080E00E945A0DE1EEF0E080818E7F3E
:101C50008083E2EEF0E08081816080838081886013
:101C60008083F80180818E7F808388818061888372
:101C7000DF91CF911F910F910895E8EDF0E0808101
:101C80008F7E8083E7EDF0E080818160808384E057
:101C900082BF81E08093ED010C94FA0DE8EDF0E055
:101CA00080818E7F80831092E20008951092DA0086
:101CB0001092E10008951F920F920FB60F92112417
:101CC0002F933F934F935F936F937F938F939F9344
:101CD000AF93BF93EF93FF938091E10082FF0BC01E
:101CE0008091E20082FF07C08091E1008B7F8093AA
:101CF000E1000E94660A8091DA0080FF1FC0809197
:101D0000D80080FF1BC08091DA008E7F8093DA00BC
:101D10008091D90080FF0DC080E189BD82E189BD3D
:101D200009B400FEFDCF81E08093EE010E944C0AD1
:101D300005C019BC1092EE010E945E0A8091E1007C
:101D400080FF19C08091E20080FF15C08091E20001
:101D50008E7F8093E2008091E20080618093E200B8
:101D60008091D80080628093D80019BC85E0809370
:101D7000EE010E94800B8091E10084FF30C08091D1
:101D8000E20084FF2CC080E189BD82E189BD09B4F5
:101D900000FEFDCF8091D8008F7D8093D800809188
:101DA000E1008F7E8093E1008091E2008F7E80933E
:101DB000E2008091E20081608093E2008091EA017C
:101DC000882311F084E007C08091E30087FF02C000
:101DD00083E001C081E08093EE010E94DD0B8091E1
:101DE000E10083FF29C08091E20083FF25C080913C
:101DF000E100877F8093E10082E08093EE01109202
:101E0000EA018091E1008E7F8093E1008091E20001
:101E10008E7F8093E2008091E20080618093E200F7
:101E200042E060E080E00E945A0D8091F0008860FE
:101E30008093F0000E94650AFF91EF91BF91AF91EE
:101E40009F918F917F916F915F914F913F912F91D2
:101E50000F900FBE0F901F9018951F920F920FB604
:101E60000F9211242F933F934F935F936F937F9320
:101E70008F939F93AF93BF93CF93EF93FF93C091B3
:101E8000E900CF708091EC001092E9008091F000A1
:101E9000877F8093F00078940E94690F1092E90088
:101EA0008091F00088608093F000C093E900FF917A
:101EB000EF91CF91BF91AF919F918F917F916F9152
:101EC0005F914F913F912F910F900FBE0F901F90F8
:101ED00018951F93CF93DF93CDB7DEB7AA970FB6B0
:101EE000F894DEBF0FBECDBFEFEEF1E08091F100C0
:101EF000819321E0E73FF207C9F70E94BF0A809172
:101F0000E80083FF1CC12091EF013091F001832F85
:101F100090E08A30910508F012C1FC01EA5AFF4FA7
:101F20000C94182B203881F0223809F008C18091D8
:101F3000F3018F708093E9008091EB0085FB882787
:101F400080F91092E90006C08091EB019091EC01BC
:101F5000911182609091E800977F9093E8008093C0
:101F6000F1001092F100C5C0822F8D7F09F0E7C00B
:101F7000222319F0223061F0E2C08091F10181301A
:101F800009F0DDC0333009F080E08093EC0128C017
:101F90008091F101811124C02091F3012F7009F487
:101FA000CEC02093E9008091EB0080FF19C08091A2
:101FB000EB00333011F4806211C080618093EB003C
:101FC00081E090E0022E01C0880F0A94EAF7809326
:101FD000EA001092EA008091EB0088608093EB00A9
:101FE0001092E9008091E800877F86C02111A7C088
:101FF0001091F1011F778091E3008078812B80930D
:10200000E3008091E800877F8093E8000E948F0DB5
:102010008091E80080FFFCCF8091E300806880938E
:10202000E300112311F083E001C082E08093EE0110
:1020300086C02058223008F082C08091F101909132
:10204000F2018C3D23E0920779F583E08A838AE2EE
:1020500089834FB7F894DE01139620E03EE051E209
:10206000E32FF0E050935700E49120FF03C0E29586
:10207000EF703F5FEF708E2F90E0EA3010F0C79660
:1020800001C0C0968D939D932F5F243149F74FBFB8
:102090008091E800877F8093E8006AE270E0CE01DB
:1020A00001960E94970C14C0AE014F5F5F4F609184
:1020B000F3010E94DF0B009709F441C02091E80072
:1020C000277F2093E800BC0189819A810E94F80C47
:1020D0008091E8008B778093E80031C0203879F553
:1020E0008091E800877F8093E8008091EA018093E7
:1020F000F1008091E8008E778093E8000E948F0DB8
:102100001EC021111CC09091F1019230C0F4809149
:10211000E800877F8093E8009093EA010E948F0D8A
:102120008091EA01811104C08091E30087FF02C021
:1021300084E001C081E08093EE010E94A60A8091B4
:10214000E80083FF0AC08091E800877F8093E80061
:102150008091EB0080628093EB00AA960FB6F89412
:10216000DEBF0FBECDBFDF91CF911F910895909339
:102170006F0180936E010895E0916E01F0916F01FF
:10218000309721F00190F081E02D099480E00895CE
:10219000FF920F931F93CF93DF938C01E0916E0119
:1021A000F0916F01309799F10280F381E02D09954C
:1021B0008091D90182FF2BC080FF04C083ED94E0A1
:1021C0000E94FF06E80180E2F82E0DEC14E08091F9
:1021D000D90180FF0BC088811F928F931F930F93AB
:1021E0000E9498070F900F900F900F90FA942196ED
:1021F000F110EDCF8091D90180FF09C08BEC94E004
:10220000DF91CF911F910F91FF900C94FF06DF910A
:10221000CF911F910F91FF900895E0916E01F09181
:102220006F01309721F00480F581E02D0994089525
:10223000CF93DF93EC0180916C0190916D01C817F1
:10224000D90709F1D0936D01C0936C01E0916E0143
:10225000F0916F013097B9F00680F781E02DCE0143
:1022600009958091D90182FF0EC080FF0CC0DF93D9
:10227000CF938DEB94E09F938F930E9498070F90DC
:102280000F900F900F90DF91CF910895CF93DF9330
:10229000EC0180916A0190916B01C817D90709F18F
:1022A000D0936B01C0936A01E0916E01F0916F01D0
:1022B0003097B9F00084F185E02DCE010995809129
:1022C000D90182FF0EC080FF0CC0DF93CF938DEA4F
:1022D00094E09F938F930E9498070F900F900F9018
:1022E0000F90DF91CF9108950C943E120E945C1ED6
:1022F0000E94AA070E94561F0C94F228CF92DF92E8
:10230000EF92FF920F931F93CF93DF9300D000D0F3
:1023100000D0CDB7DEB70E94CB0731E7E32E31E026
:10232000F32E00E010E0C02E802F0E946E08F7010F
:10233000D1907F01D826B1F40F5F1F4F05301105F2
:1023400091F78FEF89838A831B820E94651E8160CB
:10235000782F9D838C8349815A816B818D810E9466
:10236000411248C09091D90191FF04C08E830E9410
:1023700074088E8120E030E04D2D50E0922FBA019C
:10238000022E02C0759567950A94E2F760FF2CC093
:102390002983CA82EE24E394F12C02C0EE0CFF1CC8
:1023A0009A95E2F790E08E219F2121E0892B09F494
:1023B00020E02B830E94651E8160782F9D838C8393
:1023C00049815A816B818D810E94411249815A81D4
:1023D0006B817C818D810E94DE1DF801EF58FE4FDC
:1023E00080818E25808306C02F5F3F4F26303105C8
:1023F00029F6A2CF0E94DD1D0E94EB2210917001F0
:102400000E94BC10181741F10E94BC10809370010B
:102410009091D90192FF0EC090FF0CC01F928F9334
:102420008EED94E09F938F930E9498070F900F90EA
:102430000F900F908091700126960FB6F894DEBF32
:102440000FBECDBFDF91CF911F910F91FF90EF9005
:10245000DF90CF900C94EF1D26960FB6F894DEBF58
:102460000FBECDBFDF91CF911F910F91FF90EF90E5
:10247000DF90CF9008950C94BB08089508950895B7
:102480000895CF93DF93CDB7DEB72B970FB6F894AF
:10249000DEBF0FBECDBF4F83588769877A878B8792
:1024A0008A859B85892B31F05F3F11F080E003C066
:1024B0004F3FE1F781E0811107C04F815885698561
:1024C0007A858B850E94DE1DDE01119686E0FD0176
:1024D00011928A95E9F785E0FE01379601900D92F9
:1024E0008A95E1F749815A816B817C818D819E813A
:1024F0000E94271A2B960FB6F894DEBF0FBECDBFF1
:10250000DF91CF910895CF93C82F882309F4A8C0F5
:102510008238A1F40E94BC1081FDA2C089E30E9410
:10252000A41C0E94861D2FEF81EE94E02150804074
:102530009040E1F700C0000089E315C08338C1F482
:102540000E94BC1080FD8CC083E50E94A41C0E94E8
:10255000861D2FEF81EE94E0215080409040E1F7FE
:1025600000C0000083E50E94F51CCF910C94861DED
:102570008438A1F40E94BC1082FD72C087E40E94DE
:10258000A41C0E94861D2FEF81EE94E02150804014
:102590009040E1F700C0000087E4E5CF8CEF8C0F9E
:1025A000813A20F080E58C0F8E3248F48C2F0E9407
:1025B000A027811155C08C2F0E94A41CD6CF80E289
:1025C0008C0F883048F4C77081E001C0880FCA952D
:1025D000EAF70E944A1DC9CF8BE58C0F833078F44F
:1025E000C53A29F0C63A31F482E890E005C081E8A6
:1025F00090E002C083E890E0CF910C94181188E538
:102600008C0F853168F5C83A89F0C93A91F0CA3A19
:1026100099F0CB3AA1F0CC3AA9F0CD3AB1F0CE3A4C
:10262000B9F0CF3AC1F487EB90E017C082EE90E0AA
:1026300014C089EE90E011C08AEE90E00EC085EBE8
:1026400090E00BC086EB90E008C083EB90E005C003
:1026500084EB90E002C080E090E0CF910C944611B2
:10266000CF910895882309F46AC08238A1F40E94AA
:10267000BC1081FF64C089E30E94A41C0E94861DD7
:102680002FEF81EE94E0215080409040E1F700C0B0
:10269000000089E315C08338B9F40E94BC1080FFA4
:1026A0004EC083E50E94A41C0E94861D2FEF81EE80
:1026B00094E0215080409040E1F700C0000083E5A5
:1026C0000E94F51C0C94861D8438A1F40E94BC1055
:1026D00082FF35C087E40E94A41C0E94861D2FEF54
:1026E00081EE94E0215080409040E1F700C000006E
:1026F00087E4E6CF9CEF980F913A10F390E5980F9E
:102700009E32F0F290E2980F983050F4877091E08A
:1027100001C0990F8A95EAF7892F0E94501DD2CFE8
:102720009BE5980F933020F480E090E00C94181112
:10273000885A853120F480E090E00C944611089589
:10274000882321F00E944A1D0C94861D0895882339
:1027500021F00E94501D0C94861D0895CF92DF92A7
:10276000EF92FF920F931F93CF93DF93CDB7DEB716
:1027700028970FB6F894DEBF0FBECDBF8C0185E061
:10278000F801DE01119601900D928A95E1F7F801AA
:1027900040813181F280258122952F70838194813F
:1027A000892B31F03F3F31F481E04F3F19F403C0F2
:1027B00081E001C080E080FD4BC349833A83898179
:1027C0009A812F830E94621C9E8388870E94611CCD
:1027D0000E94891B4E81E42FE295EF70F0E0E05AF1
:1027E000FF4F2F8168850C94182B842F807F142F26
:1027F0001F70882311F01295107FFF2059F01123CC
:1028000009F471C2812F68870E945D1D0E94861D98
:10281000688569C2862F0E943213112309F418C3F8
:10282000812F0E94631D28960FB6F894DEBF0FBE5D
:10283000CDBFDF91CF911F910F91FF90EF90DF906F
:10284000CF900C94861D842F807F942F9F70E92E4B
:10285000803219F0E29480EFE822662319F06130AB
:1028600001F129C0FF20A9F08E2D222349F121304A
:1028700039F528960FB6F894DEBF0FBECDBFDF91B5
:10288000CF911F910F91FF90EF90DF90CF900C941C
:102890006D1D222319F0213009F4DAC20E94701D47
:1028A0002CC0FF20E9F0263008F0D2C20E94471D5C
:1028B0008E2129F022C0FF20F1F0211115C08E2DAC
:1028C00028960FB6F894DEBF0FBECDBFDF91CF9133
:1028D0001F910F91FF90EF90DF90CF900C94A01379
:1028E000253008F0B5C209C0F801858180FFFBC121
:1028F0008F708583E4CF21110AC28E2D78C1242FD9
:1029000026952695237030E02115310521F02130E0
:102910003105C9F09DC2FF2021F0862F942F9370BE
:1029200002C080E090E028960FB6F894DEBF0FBE9C
:10293000CDBFDF91CF911F910F91FF90EF90DF906E
:10294000CF900C941811FF2021F0862F942F9370B4
:1029500002C080E090E028960FB6F894DEBF0FBE6C
:10296000CDBFDF91CF911F910F91FF90EF90DF903E
:10297000CF900C944611862FFF2019F00E947121F0
:1029800002C00E94D92128960FB6F894DEBF0FBE70
:10299000CDBFDF91CF911F910F91FF90EF90DF900E
:1029A000CF900C945E22842F837009F076C0F110D2
:1029B0004FC2262F229526952770220F220F862F91
:1029C0008F70C82ED12CE12CF12C022E04C0CC0C1F
:1029D000DD1CEE1CFF1C0A94D2F764FF10C06FE0F0
:1029E00070E080E090E004C0660F771F881F991F99
:1029F0002A95D2F7609570958095909503C060E018
:102A000070E0CB01242F269526952370422F50E0AD
:102A100042305105D1F04330510559F16C297D29DF
:102A20008E299F294130510541F128960FB6F8941F
:102A3000DEBF0FBECDBFDF91CF911F910F91FF90F1
:102A4000EF90DF90CF900C949E1B6C297D298E29EE
:102A50009F2928960FB6F894DEBF0FBECDBFDF9139
:102A6000CF911F910F91FF90EF90DF90CF900C943A
:102A7000B01B0E949E1BC701B60128960FB6F894A2
:102A8000DEBF0FBECDBFDF91CF911F910F91FF90A1
:102A9000EF90DF90CF900C948C1BFF2019F0842FC7
:102AA000817001C08695882309F4D2C1262F229512
:102AB00026952770220F220F862F8F70C82ED12CBB
:102AC000E12CF12C022E04C0CC0CDD1CEE1CFF1CF2
:102AD0000A94D2F764FF10C06FE070E080E090E0ED
:102AE00004C0660F771F881F991F2A95D2F760953B
:102AF00070958095909503C060E070E0CB01242F25
:102B0000269526952370422F50E042305105D1F092
:102B10004330510559F16C297D298E299F29413077
:102B2000510541F128960FB6F894DEBF0FBECDBF18
:102B3000DF91CF911F910F91FF90EF90DF90CF9099
:102B40000C943D1C6C297D298E299F2928960FB64F
:102B5000F894DEBF0FBECDBFDF91CF911F910F91D3
:102B6000FF90EF90DF90CF900C944F1C0E943D1C83
:102B7000C701B60128960FB6F894DEBF0FBECDBFD1
:102B8000DF91CF911F910F91FF90EF90DF90CF9049
:102B90000C942B1C603FD9F128F480E4860F80321E
:102BA00050F09CC0623F09F461C008F44BC0633F21
:102BB00009F470C093C0162F1071842F8F7168872D
:102BC000FF2059F00E94D61B6885862F112319F02B
:102BD0008295807F75CE8F7073CE0E94F11B6885C1
:102BE000862F112319F08295807F01C08F7028965F
:102BF0000FB6F894DEBF0FBECDBFDF91CF911F910E
:102C00000F91FF90EF90DF90CF900C94A713FF20CF
:102C1000A9F0253008F01CC1842F8F7128960FB6BB
:102C2000F894DEBF0FBECDBFDF91CF911F910F9102
:102C3000FF90EF90DF90CF900C94101C263008F09E
:102C400007C1EACFFF20A1F0842F8F7128960FB61D
:102C5000F894DEBF0FBECDBFDF91CF911F910F91D2
:102C6000FF90EF90DF90CF900C94D61BFF2061F384
:102C7000842F8F7128960FB6F894DEBF0FBECDBF9C
:102C8000DF91CF911F910F91FF90EF90DF90CF9048
:102C90000C94F11BFF2091F0842F8F7128960FB6B2
:102CA000F894DEBF0FBECDBFDF91CF911F910F9182
:102CB000FF90EF90DF90CF900C94C71B28960FB633
:102CC000F894DEBF0FBECDBFDF91CF911F910F9162
:102CD000FF90EF90DF90CF900C94C21BFF20A1F0EB
:102CE000222309F4B1CF862F28960FB6F894DEBFC1
:102CF0000FBECDBFDF91CF911F910F91FF90EF904D
:102D0000DF90CF900C948312222309F4B1CF862F49
:102D100028960FB6F894DEBF0FBECDBFDF91CF91DE
:102D20001F910F91FF90EF90DF90CF900C94321392
:102D30004F70C8010E94001F28960FB6F894DEBF9E
:102D40000FBECDBFDF91CF911F910F91FF90EF90FC
:102D5000DF90CF900C94D41AF1107AC0942F9F700A
:102D6000492F50E04230510509F440C0BCF44115F0
:102D7000510561F14130510509F06AC028960FB63E
:102D8000F894DEBF0FBECDBFDF91CF911F910F91A1
:102D9000FF90EF90DF90CF900C942D294330510598
:102DA000A9F14430510509F053C0862F28960FB67B
:102DB000F894DEBF0FBECDBFDF91CF911F910F9171
:102DC000FF90EF90DF90CF900C94BA2928960FB621
:102DD000F894DEBF0FBECDBFDF91CF911F910F9151
:102DE000FF90EF90DF90CF900C94032928960FB6B8
:102DF000F894DEBF0FBECDBFDF91CF911F910F9131
:102E0000FF90EF90DF90CF900C945C2928960FB63E
:102E1000F894DEBF0FBECDBFDF91CF911F910F9110
:102E2000FF90EF90DF90CF900C9482294F70C801F3
:102E300028960FB6F894DEBF0FBECDBFDF91CF91BD
:102E40001F910F91FF90EF90DF90CF900C94031F94
:102E500028960FB6F894DEBF0FBECDBFDF91CF919D
:102E60001F910F91FF90EF90DF90CF9008950E94F7
:102E70006A1D0E94391D0E94861D0E948C230E949B
:102E80005E2280E090E00E94181180E090E00C94B7
:102E900046110E945A1D0C9437170E94621C292F5C
:102EA00022952F7030E02C3031054CF42A3031055A
:102EB000C4F4225031092230310540F021C02C30B9
:102EC0003105D1F02F303105B9F01AC0853A28F418
:102ED0008430C0F4823028F415C090E2980F983006
:102EE00088F0883E30F4803E68F48450813A40F4A3
:102EF00009C0803F29F406C093FB882780F9089514
:102F000080E0089581E00895CF93DF9300D000D052
:102F10001F92CDB7DEB70F900F900F900F900F90CC
:102F2000DF91CF910895CF93DF9300D000D000D0F0
:102F3000CDB7DEB726960FB6F894DEBF0FBECDBF75
:102F4000DF91CF9108951F93CF93DF93C0917601C6
:102F500016E080917701C81799F0D0E01C9FF0012E
:102F60001D9FF00D1124E858FE4F40815181628170
:102F70007381848195810E9493172196C770E9CF50
:102F8000DF91CF911F9108954091A8015091A9011F
:102F90006091AA017091AB018091AC019091AD015B
:102FA0000C949317CF938091AD0182958F7009F0A7
:102FB0005FC08091AA01882309F45AC0209176014C
:102FC000A09177016091A8017091A9018091AB0156
:102FD0009091AC0131E06F3F09F030E0B32FC6E0D3
:102FE0002A1709F445C0009721F07F3F21F44B2FA9
:102FF00003C041E001C040E030E040FD35C0C29F69
:10300000F001C39FF00D1124E858FE4F4181741365
:103010002BC04081641328C04281411125C04381E7
:1030200054814817590710F441505109481B590B56
:10303000483C5105C8F48091AD018F708061809348
:10304000AD0186E0829FF001839FF00D1124E358CB
:10305000FE4F80818F708061808388EA91E00E94BA
:10306000AE13CF910C94A3172F5F3F4F2770B8CFAB
:10307000CF910895CF92DF92EF92FF920F931F931B
:10308000CF93DF93CDB7DEB762970FB6F894DEBF6C
:103090000FBECDBF8C0185E0F801DE011D960190C9
:1030A0000D928A95E1F7D8014C9111965C91119798
:1030B00012966C9112971396ED90FC901497709164
:1030C000A801E091A9012091AB013091AC0121153B
:1030D000310531F0EF3F31F481E07F3F19F403C057
:1030E00081E001C080E0B82FB170CB2E80FD6CC1B3
:1030F000D090AA01DD2009F4F5C0F091AD01E216EF
:10310000F30638F0C701821B930B883C910548F009
:103110009BC0209530952E0D3F1D283C310508F0B1
:1031200093C08F2F807F09F052C0E51314C0741331
:1031300012C0D62E61110FC0FF70F061F093AD0187
:103140000E94C41788EA91E00E94AE138091AD01FD
:10315000F80185836CC1EF2831F05F3F31F481E0E5
:103160004F3F19F403C081E001C080E080FD03C03F
:1031700081E0862701C080E0F82FF170FF2E80FFEC
:103180001CC0809176012091770136E0821709F406
:1031900028C190E0389FF001399FF00D1124E858C4
:1031A000FE4F7181571306C07081471303C07281AF
:1031B000671303C001968770E9CFD62E662309F402
:1031C00036C18091AD0181608093AD0153C0E5139C
:1031D00008C0741306C0611104C0D8011596FC9391
:1031E000AEC04D875E878D859E856A8B0E944D1788
:1031F0006A89882329F1D62E662311F12091AD0129
:10320000822F82958F7090E002970CF460C08091BD
:10321000A8019091A90198878F831986FB86EA8679
:103220002C87CE01079651C0E51731F14D875E8797
:103230008D859E856A8B0E944D176A8981112EC0EB
:10324000C8010E94AE13A4C08F2F807F69F77E2D26
:10325000F98AE88A89890E94841788EA91E00E94A5
:10326000AE13E8EAF1E086E0DF011D928A95E9F706
:103270000E94C417D12CDBC07413D8CF6111D6CFF4
:10328000D8011596FC93C8010E94AE13E8EAF1E05C
:1032900086E0DF011D928A95E9F7C9C0D62E662324
:1032A00079F22091AD01822F82958F7090E0029784
:1032B00074F08091A8019091A9019A8389831B825F
:1032C000FD82EC822E83CE0101960E94AE1386E031
:1032D000F801A8EAB1E001900D928A95E1F70E9409
:1032E000D2176FC0E216F30628F0C701821B930BBA
:1032F0009C0104C0209530952E0D3F1D283C3105C2
:1033000008F052C0D62E662309F49ACFE5132CC0DC
:1033100074132AC08091AD0180FD1DC0982F929535
:103320009F70C9F0D80115968C9315979F3039F08E
:103330009F5F9295907F8F70892B15968C93C80113
:103340000E94AE1386E0F801A8EAB1E001900D9268
:103350008A95E1F736C086E0F801A8EAB1E001906D
:103360000D928A95E1F763C04D875E878D859E85B6
:103370000E944D17882379F086E0F801A8EAB1E0B1
:1033800001900D928A95E1F70E94D2170E94C4170E
:10339000DD24D3944CC08091AD0181608093AD0158
:1033A000C8010E94AE1343C07E2DF98AE88A89893C
:1033B0000E948417E8EAF1E086E0DF011D928A9519
:1033C000E9F70E94C41733C0662309F439CF4D874B
:1033D0005E878D859E850E944D17882309F430CF26
:1033E000CBCF4D875E878D859E850E94621C292FDD
:1033F00022952F7030E0223031052CF49F7041F07F
:10340000811106C00CC0243031052CF49F7049F4A2
:10341000805E883020F0C8010E94AE13CF2CDC2CD7
:1034200006C0D80115969C91907F91F7F8CF8D2D0D
:1034300062960FB6F894DEBF0FBECDBFDF91CF917D
:103440001F910F91FF90EF90DF90CF9008951F9301
:10345000CF93DF93CDB7DEB72C970FB6F894DEBFCE
:103460000FBECDBF4F83588769877A878B879C872C
:10347000CE0107960E943A188823C1F02F81388523
:103480008A859B85892B31F03F3F11F080E003C096
:103490002F3FE1F781E0811147C04F815885698551
:1034A0007A858B859C850E9493173EC086E0FE013D
:1034B0003796DE01119601900D928A95E1F7FF8112
:1034C000E8854A855B854115510531F0EF3F31F4C0
:1034D00081E0FF3F19F403C081E001C080E080FD7E
:1034E00023C02091770130E0C901019687709927A8
:1034F0006091760170E086179707F1F1F983EA830E
:103500005D834C8396E0929FD001939FB00D112470
:10351000A858BE4FFE01319601900D929A95E1F7A1
:10352000809377010E94A31716E080917601909115
:103530007701891779F1189FC001112488589E4F8F
:103540000E943A18882331F1E09176011E9FF00124
:103550001124E858FE4F408151816281738184813A
:1035600095810E9493178091760190E00196877073
:10357000992780937601D9CF0E944917109277013D
:1035800010927601E8EAF1E086E0DF011D928A956B
:10359000E9F7CACF2C960FB6F894DEBF0FBECDBFA9
:1035A000DF91CF911F910895DF92EF92FF920F93D9
:1035B0001F93CF93DF939C01009709F48AC0E12CFD
:1035C000F12CDD24D394E9012196F901849185370A
:1035D00009F462C058F4843708F04EC0843008F013
:1035E00069C08130D1F0823071F173C0883709F43D
:1035F0005CC050F4863709F454C0873709F069C0BD
:103600008E2D0E94571D53C09CE7980F903708F0ED
:1036100060C08F770E9432134FC089010E5F1F4F29
:10362000FE01C49180E28C0F883048F4C7708D2D64
:1036300001C0880FCA95EAF70E945D1D15C08C2F46
:103640000E94831213C089010E5F1F4FFE01C491B7
:1036500080E28C0F883060F4C7708D2D01C0880F18
:10366000CA95EAF70E94631D0E94861DE80124C0E6
:103670008C2F0E943213FACF2E5F3F4FFE01C49170
:10368000CC2341F08FE99FE00197F1F700C00000E3
:10369000C150F6CFE90110C0FE01F490E901229675
:1036A0000BC00E94471DE82E07C00E945A1D0E94B1
:1036B000861D02C00E9483129F2D992341F0EFE9DD
:1036C000FFE03197F1F700C000009150F6CF9E0166
:1036D0007ACFDF91CF911F910F91FF90EF90DF9004
:1036E00008956093B2017093B3018093B4019093F5
:1036F000B5010E94ED1D0C9437176093AE017093D5
:10370000AF018093B0019093B1010E94EE1D0C9423
:10371000371708950C94711B0F931F930091B201FA
:103720001091B3012091B4013091B501602B712B40
:10373000822B932B1F910F910C94711B0F931F934E
:103740000091B2011091B3012091B4013091B50103
:1037500060237123822393231F910F910C94711B7B
:103760000F931F930091B2011091B3012091B40106
:103770003091B50160277127822793271F910F9100
:103780000C94711B60E070E0CB010C947D1B41E058
:1037900050E060E070E004C0440F551F661F771FC3
:1037A0008A95D2F7CB01BA010C947D1B41E050E021
:1037B00060E070E004C0440F551F661F771F8A95B4
:1037C000D2F78091AE019091AF01A091B001B0917C
:1037D000B101482B592B6A2B7B2BCB01BA010C94DE
:1037E0007D1B41E050E060E070E004C0440F551FD5
:1037F000661F771F8A95D2F7409550956095709512
:103800008091AE019091AF01A091B001B091B10152
:10381000482359236A237B23CB01BA010C947D1BD7
:1038200041E050E060E070E004C0440F551F661FA7
:10383000771F8A95D2F78091AE019091AF01A09148
:10384000B001B091B101482759276A277B27CB01E6
:10385000BA010C947D1B0F931F930091AE01109140
:10386000AF012091B0013091B101602B712B822BFF
:10387000932B1F910F910C947D1B0F931F9300911D
:10388000AE011091AF012091B0013091B1016023E0
:103890007123822393231F910F910C947D1B0F930F
:1038A0001F930091AE011091AF012091B0013091B2
:1038B000B10160277127822793271F910F910C94E4
:1038C0007D1B0895CF92DF92EF92FF920F931F938B
:1038D000CF93DF93EC01C090B201D090B301E090A0
:1038E000B401F090B5018091AE019091AF01A0912B
:1038F000B001B091B101C82AD92AEA2AFB2A0FE106
:1039000010E0B701A601002E04C076956795579583
:1039100047950A94D2F740FF07C0BE01802F0E944E
:10392000EE1E8130910539F40150110950F7BE01A6
:1039300080E00E94EE1EDF91CF911F910F91FF90CA
:10394000EF90DF90CF90089590910B01992361F152
:1039500090910C01992341F1982F96959695969503
:103960009F3188F4E0910D01F0910E01E90FF11DF6
:10397000877021E030E001C0220F8A95EAF781814B
:10398000822B818308959091D90190FF2DC01F92C1
:103990008F9387E095E09F938F930E9498070F90F5
:1039A0000F900F900F90089540910D0150910E01CE
:1039B00020E030E09FEFFA01E20FF31F6281681709
:1039C00099F09F3F19F4611101C0922F2F5F3F4F73
:1039D0002E31310581F79F3F39F0FA01E90FF11DD2
:1039E00097FDFA9582830895089590910B0199238C
:1039F00069F190910C01992349F1982F969596952C
:103A000096959F3190F4E0910D01F0910E01E90F30
:103A1000F11D877021E030E001C0220F8A95EAF79E
:103A2000209581812823218308959091D90190FFC9
:103A30001FC01F928F9389EE94E09F938F930E94F3
:103A400098070F900F900F900F90089540910D01DF
:103A500050910E0120E030E0FA01E20FF31F928155
:103A6000981301C012822F5F3F4F2E313105A1F70D
:103A7000089581E090E0E0910D01F0910E01E80FD2
:103A8000F91F1082019680329105A9F7089580915F
:103A9000D80108959091D801982B9093D80108955A
:103AA00080959091D80198239093D80108958093A0
:103AB000D80108951092D80108959091D701982BBC
:103AC0009093D701089580959091D7019823909372
:103AD000D70108951092D70108958093B6010895F3
:103AE0001092B601089540910D0150910E0120E011
:103AF00030E080E0FA01E20FF31F918191118F5FB6
:103B00002F5F3F4F2F313105A9F70895E0910D0147
:103B1000F0910E018091D8018083E0910D01F09128
:103B20000E0180819091D701892B80839091B601FD
:103B3000992361F0E0910D01F0910E018081892BB4
:103B400080830E94731D81111092B60180910D0136
:103B500090910E010C94C810909339018093380114
:103B600008958295982F9C7C96959695837344E052
:103B7000849F90011124922B892F8A7A86959575BE
:103B8000990F892B08951F93CF93DF931F92CDB781
:103B9000DEB799830E94B11D182F9981892F0E9449
:103BA000B11D212F30E0322F2227A901482BCA0155
:103BB0000F90DF91CF911F9108950895CF93DF93D8
:103BC00000D000D01F92CDB7DEB70F900F900F90AE
:103BD0000F900F90DF91CF910895089508950C9460
:103BE0003B1208958091EE01843009F11092DA01C0
:103BF00020E488E190E00FB6F894A89580936000E7
:103C00000FBE2093600083B7817F846083BF83B73A
:103C1000816083BF7894889583B78E7F83BF88E166
:103C20000FB6F89480936000109260000FBE089564
:103C3000CF930E943F120E94CB070E944012C0E027
:103C40008C2F0E946E08811105C0CF5FC530C1F76F
:103C500080E001C081E0CF9108950E943D120E9452
:103C600049170C94F2281F920F920FB60F9211244D
:103C70008F939F93AF93BF938091DA01811113C00B
:103C80008091DB019091DC01A091DD01B091DE011A
:103C90004196A11DB11D8093DB019093DC01A0939F
:103CA000DD01B093DE01BF91AF919F918F910F9095
:103CB0000FBE0F901F90189582E084BD93E095BDD4
:103CC0009AEF97BD80936E0008952FB7F894809176
:103CD000DB019091DC01A091DD01B091DE012FBFED
:103CE00008952FB7F8946091DB017091DC01809109
:103CF000DD019091DE012FBF0895CF92DF92EF9208
:103D0000FF920F931F932FB7F8944091DB015091CE
:103D1000DC016091DD017091DE012FBF6A017B0142
:103D2000EE24FF248C0120E030E0C016D106E2062C
:103D3000F30610F441505109481B590BCA011F9159
:103D40000F91FF90EF90DF90CF9008951F920F9208
:103D50000FB60F9211248F939F93AF93BF938091CF
:103D6000DB019091DC01A091DD01B091DE010196B3
:103D7000A11DB11D8093DB019093DC01A093DD01B7
:103D8000B093DE01BF91AF919F918F910F900FBEC5
:103D90000F901F9018950E94E00DF8942FEF87EA7E
:103DA00091E6215080409040E1F700C0000087E09C
:103DB00090EBDC018093F9019093FA01A093FB0151
:103DC000B093FC012CE088E190E00FB6F894A89540
:103DD000809360000FBE20936000FFCF96E0799F34
:103DE000F00111249EE1899FE00DF11D1124E60FE1
:103DF000F11DEE0FFF1FE052FF4F85919491089542
:103E000080E090E008950895DF92EF92FF920F9383
:103E10001F93CF93DF938C01D12C8D2D0E946E08C0
:103E2000C0E0D0E0E82EF12C97010C2E02C03595B1
:103E300027950A94E2F720FF16C06C2F7D2D80E0B5
:103E40000E94EE1E9C018017910759F0832F807EFF
:103E5000932F907C11F0803A31F430E02017310735
:103E600011F481E009C02196C630D105E9F6D3945A
:103E700085E0D812D2CF80E0DF91CF911F910F91D2
:103E8000FF90EF90DF900895CF93DF93EC0184E1F2
:103E900090E00E94041F882329F0CE01DF91CF918A
:103EA0000C94041F80E0DF91CF910895CF930E947E
:103EB000C120811102C00E94A2208CE295E00E94E4
:103EC000FF06C5E6C15049F00E94CB078FE39CE98D
:103ED0000197F1F700C00000F5CF85E295E00E9460
:103EE000FF0689E290E00E94441F811129C18AE205
:103EF00090E00E94441F81110E94A22085E090E082
:103F00000E94441F81110E94CB1E0E94F11D0E943D
:103F1000CC208093D90187E090E00E94441F882341
:103F2000B1F18BE190E00E94441F882351F0909101
:103F3000D90191FB882780F921E0822780FB91F944
:103F400024C08EE090E00E94441F882351F090919D
:103F5000D90192FB882780F921E0822780FB92F922
:103F600014C080E190E00E94441F9091D901882301
:103F700041F093FB882780F921E0822780FB93F9A9
:103F800004C0892F809580FB90F99093D90180918E
:103F9000D9010E94D0200E94DE208093F70180EE9C
:103FA00090E00E94441F882341F08091F701982FF0
:103FB000909590FB80F98093F70189E390E00E944F
:103FC000441F882359F09091F70191FB882780F9CD
:103FD00021E0822780FB91F99093F70182EE90E037
:103FE0000E94441F882359F09091F70192FB882783
:103FF00080F921E0822780FB92F99093F70186EE09
:1040000090E00E94441F882359F09091F70193FBA0
:10401000882780F921E0822780FB93F99093F701AC
:1040200083EE90E00E94441F882359F09091F7019D
:1040300094FB882780F921E0822780FB94F99093F4
:10404000F70185E390E00E94441F882359F0909186
:10405000F70195FB882780F921E0822780FB95F9FD
:104060009093F70181E390E00E94441F882359F068
:104070009091F70196FB882780F921E0822780FB49
:1040800096F99093F70181E190E00E94441F882304
:1040900059F09091F70197FB882780F921E082275A
:1040A00080FB97F99093F7018091F7010E94E2203D
:1040B0008091F70187FB882780F980930C0187E2C4
:1040C00090E00E94441FC82F8EE190E00E94441FA0
:1040D0008111C2608FE190E00E94441F8111C46091
:1040E00080E290E00E94441F8111C86081E290E06C
:1040F0000E94441F8111C06182E290E00E94441F2F
:104100008111C06283E290E00E94441F8111C0646B
:1041100084E290E00E94441F882311F0C06802C02E
:10412000CC2329F08C2F0E94D9206C2F03C00E9431
:10413000D520682F70E080E090E0CF910C948A1B2E
:10414000CF9108956DEE7EEF80E090E00E944E2BBF
:1041500060E082E090E00E94402B60E083E090E02D
:104160000E94402B60E084E090E00E94402B60E0E1
:1041700085E090E00E94402B60E086E090E00C94A7
:10418000402B80E090E00E943A2B21E08D3E9E4F34
:1041900009F020E0822F089582E090E00C94322B09
:1041A000682F82E090E00C94402B83E090E00C9428
:1041B000322B682F83E090E00C94402B84E090E059
:1041C0000C94322B682F84E090E00C94402B86E016
:1041D00090E00C94322B682F86E090E00C94402BFA
:1041E0008091E10180FF0BC06091120185E0689F22
:1041F000B001112475956795759567952AC081FF63
:1042000009C06091120185E0689FB0011124759585
:1042100067951FC082FF07C06091120185E0689F0B
:10422000B001112416C04091E2014423C9F060910D
:104230001101461788F72091120185E0289F90010F
:104240001124429FC001439F900D112470E00E94F1
:10425000042B6038710540F46115710539F002C016
:1042600065E070E0862F08958FE7089581E0089556
:104270008091E10180FF08C06091100170E07595A8
:1042800067957595679521C081FF06C06091100103
:1042900070E07595679519C082FF04C060911001A8
:1042A00070E010C08091E2018823C1F060910F019D
:1042B0008617A0F790911001989FC001112470E01B
:1042C0000E94042B6038710528F46115710521F0F6
:1042D000862F08958FE7089581E0089561E070E0EA
:1042E000F4CF803F21F40E94F020819504C0813FEB
:1042F00029F40E94F0208093E5010895823F21F483
:104300000E94F020819504C0833F29F40E94F02090
:104310008093E4010895893F19F40E94382105C073
:104320008A3F31F40E94382181958093E6010895F7
:104330008B3F21F40E943821819504C08C3F29F4E1
:104340000E9438218093E7010895843F21F48091F1
:10435000E301816017C0853F21F48091E301826011
:1043600011C0863F21F48091E30184600BC0873F38
:1043700021F48091E301886005C0883F31F4809189
:10438000E30180618093E30108958D3F21F48091E2
:10439000E10181600BC08E3F21F48091E1018260D8
:1043A00005C08F3F29F48091E10184608093E10191
:1043B0000895803F39F48091E50187FF6CC0109229
:1043C000E50169C0813F29F48091E5011816BCF32D
:1043D00062C09091E401823F29F497FF5CC0109283
:1043E000E40159C0833F19F41916CCF354C0893F36
:1043F00041F48091E60118160CF04DC01092E601D0
:104400004AC08A3F29F48091E60187FF44C0F6CF75
:104410008B3F39F48091E70187FF3DC01092E7019F
:104420003AC08C3F29F48091E7011816BCF333C0E1
:10443000843F21F48091E3018E7F17C0853F21F4F2
:104440008091E3018D7F11C0863F21F48091E301CB
:104450008B7F0BC0873F21F48091E301877F05C0EC
:10446000883F31F48091E3018F7E8093E30113C094
:104470008D3F21F48091E1018E7F0BC08E3F21F4AE
:104480008091E1018D7F05C08F3F29F48091E1018A
:104490008B7F8093E1018091E40181110EC08091B6
:1044A000E50181110AC08091E601811106C0809169
:1044B000E701811102C01092E20108958091D901B3
:1044C00083FF7EC088E695E00E94FF068091E301AD
:1044D0001F928F9383E695E09F938F930E94980796
:1044E00081E695E00E94FF062091E401822F992742
:1044F00087FD90959F932F938EE595E09F938F93E3
:104500000E9498078CE595E00E94FF062091E50146
:10451000822F992787FD90959F932F9389E595E0AA
:104520009F938F930E94980787E595E00E94FF066E
:104530002091E601822F992787FD90959F932F93D5
:1045400084E595E09F938F930E94980782E595E01C
:104550000E94FF062091E701822F992787FD909501
:104560009F932F938FE495E09F938F930E949807DA
:104570008CE495E00E94FF068091E2011F928F93E8
:1045800089E495E09F938F930E94980787E495E0D4
:104590000E94FF068091E1011F928F9384E495E0D1
:1045A0009F938F930E94980781E495E00E94FF06F5
:1045B0008DB79EB74C960FB6F8949EBF0FBE8DBFB9
:1045C00083EE91E00E940D110E94651E9093E00120
:1045D0008093DF0108951F93CF93DF938091DF01D4
:1045E0009091E0010E947D1E4091E201442321F060
:1045F0002091130130E006C0209114015AE0259F5C
:10460000900111248217930708F482C08091E4017D
:104610001091E501D091E601C091E701811107C039
:10462000111105C0D11103C0CC2309F471C04F3F53
:1046300019F04F5F4093E201181624F40E94F02015
:104640008093E4018091E40187FF05C00E94F0207F
:1046500081958093E401111624F40E94F020809348
:10466000E5018091E50187FF05C00E94F02081955A
:104670008093E5016091E401662339F11091E50131
:10468000112319F1772767FD7095872F972F0E94C7
:10469000092A23E333E343E35FE30E946D2A0E9488
:1046A000D6296093E401612F772767FD7095872FE6
:1046B000972F0E94092A23E333E343E35FE30E9439
:1046C0006D2A0E94D6296093E5011D1624F40E94EC
:1046D00038218093E6018091E60187FF05C00E94A2
:1046E000382181958093E6011C1624F40E9438211C
:1046F0008093E7018091E70187FF05C00E94382180
:1047000081958093E701DF91CF911F910C945E22F8
:10471000DF91CF911F910895E3EEF1E085E0DF0195
:104720001D928A95E9F71092E2011092E101089535
:104730008BE897E00E94FF061F9281E08F931F9203
:1047400085E08F938DE397E09F938F930E94980766
:104750000F900F900F900F900F900F90089583304F
:10476000E9F128F4813061F0823009F10895853053
:1047700009F462C008F449C0863009F474C0089591
:1047800020911401862F90E0820F911D8F3F91059B
:1047900020F4620F6093140103C08FEF8093140123
:1047A000809114011F928F9386E796E072C020914A
:1047B0001301862F90E0820F911D8F3F910520F409
:1047C000620F6093130103C08FEF809313018091F8
:1047D00013011F928F9384E696E05BC02091120133
:1047E000862F90E0820F911D8F3F910520F4620F7C
:1047F0006093120103C08FEF809312018091120128
:104800001F928F9381E596E044C020911101862F7D
:1048100090E0820F911D8F3F910520F4620F60930D
:10482000110103C08FEF80931101809111011F923C
:104830008F938CE396E02DC020911001862F90E09D
:10484000820F911D8F3F910520F4620F609310013C
:1048500003C08FEF80931001809110011F928F93FE
:1048600083E296E016C020910F01862F90E0820F20
:10487000911D8F3F910520F4620F60930F0103C0DB
:104880008FEF80930F0180910F011F928F9388E02B
:1048900096E09F938F930E9498070F900F900F9030
:1048A0000F900895833081F128F4813059F08230DF
:1048B000D1F00895853009F449C0B8F1863009F483
:1048C00056C0089580911401681720F4861B8093C8
:1048D000140102C010921401809114011F928F9351
:1048E00089EF95E054C080911301681720F4861B6E
:1048F0008093130102C010921301809113011F9243
:104900008F9387EE95E043C080911201681720F4E1
:10491000861B8093120102C0109212018091120135
:104920001F928F9384ED95E032C08091110168173A
:1049300020F4861B8093110102C010921101809116
:1049400011011F928F938FEB95E021C08091100190
:10495000681720F4861B8093100102C0109210018A
:10496000809110011F928F9386EA95E010C080918C
:104970000F01681720F4861B80930F0102C010926C
:104980000F0180910F011F928F938BE895E09F9309
:104990008F930E9498070F900F900F900F9008959B
:1049A000CF93C82F1F928F9320E938E03F932F9326
:1049B0000E94980761E070E080E090E004C0660F1C
:1049C000771F881F991FCA95D2F70E948A1B0F90E4
:1049D0000F900F900F90CF910C944917CF938B317C
:1049E00009F409C208F049C08E3009F417C200F575
:1049F000873009F4E7C1A8F4863009F095C28091A8
:104A0000D901817F8E7F8093D90185E998E00E944A
:104A1000FF0680EF9CE00E94FF0681E08093E901A1
:104A2000CFC1883009F45BC08B3009F4C5C17CC2AA
:104A3000813109F461C220F4803109F402C274C2E8
:104A4000863109F418C2893109F06EC284E69CE00F
:104A50000E94FF068BE49CE00E94FF0689E09CE038
:104A60000E94FF0682EE9BE00E94FF068DE99BE01C
:104A70000E94FF0682E79BE0A1C1853309F44EC284
:104A800068F4873209F44AC228F48E3108F44CC223
:104A90008D5147C2893209F441C246C2833438F489
:104AA0008A3308F03DC2883309F486C13DC283349D
:104AB00009F434C2883409F037C20E9449178FEDD7
:104AC0009CE00E94FF069FEF23ED80E39150204081
:104AD0008040E1F700C000000E94CB1E71C184EF4E
:104AE0009CE00E94FF068FEC9AE00E94FF060E9465
:104AF000D5201F928F938CEC9AE09F938F930E9406
:104B000098078AEC9AE00E94FF060E94CC20C82FEA
:104B100087EB9AE00E94FF061F92CF9322EB3AE0C8
:104B20003F932F930E94980780EB9AE00E94FF0624
:104B300086EA9AE00E94FF068C2F81701F928F9365
:104B400023EA3AE03F932F930E94980781EA9AE084
:104B50000E94FF0687E99AE00E94FF06C1FB8827B2
:104B600080F91F928F9324E93AE03F932F930E949C
:104B7000980782E99AE00E94FF0686E89AE00E9480
:104B8000FF06C2FB882780F91F928F9323E83AE043
:104B90003F932F930E94980781E89AE00E94FF06B6
:104BA00088E79AE00E94FF06C3FBCC27C0F91F925A
:104BB000CF9385E79AE09F938F930E94980783E7AE
:104BC0009AE00E94FF060E94DE20C82F8FE59AE03F
:104BD0000E94FF061F92CF932AE53AE03F932F935E
:104BE0000E94980788E59AE00E94FF068FE39AE00A
:104BF0000E94FF068C2F81701F928F932CE33AE066
:104C00003F932F930E9498078DB79EB780960FB65B
:104C1000F8949EBF0FBE8DBF8AE39AE00E94FF0604
:104C200083E29AE00E94FF06C1FB882780F91F9269
:104C30008F9320E23AE03F932F930E9498078EE1F2
:104C40009AE00E94FF068CE09AE00E94FF06C2FBF9
:104C5000882780F91F928F9329E03AE03F932F93A2
:104C60000E94980787E09AE00E94FF0685EF99E08E
:104C70000E94FF06C3FB882780F91F928F9322EFC3
:104C800039E03F932F930E94980780EF99E00E94AC
:104C9000FF0686EE99E00E94FF06C4FB882780F994
:104CA0001F928F9323EE39E03F932F930E94980732
:104CB00081EE99E00E94FF068FEC99E00E94FF06CA
:104CC000C5FB882780F91F928F932CEC39E03F9326
:104CD0002F930E9498078AEC99E00E94FF068EEAC3
:104CE00099E00E94FF06C6FB882780F91F928F93E8
:104CF0002BEA39E03F932F930E94980789EA99E0C5
:104D00000E94FF0681EA99E00E94FF06C7FBCC27BC
:104D1000C0F91F92CF938EE999E09F938F930E94E1
:104D200098078CE999E00E94FF060E94E720C82FAF
:104D300085E899E00E94FF061F92CF9320E839E0B2
:104D40003F932F930E9498078DB79EB780960FB61A
:104D5000F8949EBF0FBE8DBF8EE799E00E94FF06BC
:104D600084E799E00E94FF068C2F81701F928F9339
:104D700021E739E03F932F930E9498078FE699E04F
:104D80000E94FF0686E699E00E94FF06C6951F92E4
:104D9000CF9383E699E09F938F930E94980781E6D3
:104DA00099E00E94FF068DB79EB708960FB6F8945B
:104DB0009EBF0FBE8DBF04C08CEB98E00E94FF0623
:104DC000C1E0B7C08091D901C82FC17080FF09C070
:104DD00082ED9CE00E94FF068091D901817F8E7F49
:104DE00044C086EC9CE00E94FF068091D90181605E
:104DF0008093D901E5CF8091D90181FBCC27C0F9FF
:104E000091E0C927C0FB81F98093D901CC2319F027
:104E100089EB9CE025C08BEA9CE0D0CF8091D90142
:104E200082FBCC27C0F991E0C927C0FB82F98093AF
:104E3000D901CC2319F08CE99CE012C08CE89CE0ED
:104E4000BDCF8091D90183FBCC27C0F991E0C92760
:104E5000C0FB83F98093D901CC2351F080E89CE01A
:104E60000E94FF068091D90181608093D90161C0C1
:104E700083E79CE0A3CF84E69BE00E94FF060E94AC
:104E8000BC101F928F938AE49BE09F938F930E94A4
:104E9000980780910B011F928F9383E39BE09F9370
:104EA0008F930E949807809169011F928F9380E2EF
:104EB0009BE09F938F930E94980780910C011F9213
:104EC0008F938DE09BE09F938F930E9498070E94A1
:104ED000711E9F938F937F936F9386EF9AE09F93BA
:104EE0008F930E9498078DB79EB746960FB6F89499
:104EF0009EBF0FBE8DBF64CF0E944917C0910C01A9
:104F000081E0C827C0930C01CC2329F08CEE9AE0F5
:104F10000E94FF060EC081EE9AE050CF80E001C0F3
:104F200089530E94D0244CCF8FED9AE00E94FF0657
:104F3000C0E08C2FCF91089580E0089580E008951F
:104F4000CF93C82F8091E901813071F020F0823039
:104F500009F448C03FC1A0910D01B0910E018C91A0
:104F6000823209F039C107C0A0910D01B0910E0144
:104F70008C91823249F48C2F0E949C2781112FC082
:104F80008C2F0E94EE242CC08C2F0E949E27811112
:104F900026C0C431E1F070F4CB3081F0C031D1F4DF
:104FA0000E94982388E898E00E94FF0682E08093A0
:104FB000E90115C0C93259F0C83361F485E998E0B8
:104FC0000E94FF068CE898E00E94FF0608C010923D
:104FD000E90104C186E898E00E94FF06FFC081E075
:104FE0008170FEC0C43228F5CE3108F0C1C0CB308C
:104FF000A1F1D0F4C73009F0D3C08EE18093140141
:1050000082E3809313018AE08093120184E180930C
:10501000110188E08093100188E280930F018CE2F7
:1050200097E00E94FF06BFC0C33149F1C431C1F00F
:10503000B7C0CB3409F4A9C028F4C93289F0C83309
:1050400061F0AEC0C13509F49EC0C23509F499C003
:10505000CE3409F0A5C06AE09EC00E949823A3C088
:105060008091E801882319F01092E8019CC089E33F
:1050700097E00E94FF0681E08093E901B1C083E1DF
:1050800097E00E94FF0681E097E00E94FF06809172
:1050900014011F928F938EEF96E09F938F930E943F
:1050A00098078CEF96E00E94FF068AEE96E00E9439
:1050B000FF06809113011F928F9387EE96E09F93D6
:1050C0008F930E94980785EE96E00E94FF0686ED7A
:1050D00096E00E94FF06809112011F928F9383ED4C
:1050E00096E09F938F930E94980781ED96E00E942F
:1050F000FF0680EC96E00E94FF06809111011F924E
:105100008F938DEB96E09F938F930E9498078BEB84
:1051100096E00E94FF0686EA96E00E94FF068091D4
:1051200010011F928F9383EA96E09F938F930E94C2
:10513000980781EA96E00E94FF068AE896E00E94BE
:10514000FF0680910F011F928F9387E896E09F934F
:105150008F930E94980785E896E00E94FF068DB71E
:105160009EB748960FB6F8949EBF0FBE8DBF1BC06A
:10517000CE51EC2FF0E0E25DFE4F80818093E8019C
:1051800012C061E003C061E006C06AE08091E801FE
:105190000E94AF2308C08091E8010E94522403C0FE
:1051A0008AE297E013C08091E801882369F01F929A
:1051B0008F9384E297E09F938F930E9498070F90BC
:1051C0000F900F900F9004C081E297E00E94FF06BD
:1051D00081E006C01092E90180E002C080E000CFCB
:1051E000CF9108950E94C120811102C00E94A22087
:1051F0000E94E7208093F80180FF02C0869501C0DD
:1052000080E00C94DA088091F801982F9695292F68
:1052100030E0243031054CF49F5F990F8170892B69
:1052200081608093F8010E94EB208091D90180FF7A
:105230000FC08091F80186951F928F9381E49DE0C5
:105240009F938F930E9498070F900F900F900F904D
:105250008091F80186950C94DA088091F801982FD6
:10526000969591F09158990F8170892B8093F80150
:105270008E7F91E009F490E08091F80190FB80F935
:105280008093F8010E94EB208091D90180FF0FC02C
:105290008091F80186951F928F9389E29DE09F93FC
:1052A0008F930E9498070F900F900F900F9080910E
:1052B000F80186950C94DA088091F801982F909562
:1052C00090FB80F98093F8010E94EB208091D90136
:1052D00080FF0FC08091F80181701F928F9383E14E
:1052E0009DE09F938F930E9498070F900F900F90CF
:1052F0000F908091F80180FF02C0869501C080E088
:105300000C94DA083091F801232F26952F5F2F7720
:10531000822F90E0317005972CF4220F232B2093DD
:10532000F80102C03093F8018091F8018E7F91E07E
:1053300009F490E08091F80190FB80F98093F801E6
:105340000E94EB208091D90180FF0FC08091F8016D
:1053500086951F928F938FEF9CE09F938F930E946F
:1053600098070F900F900F900F908091F8018695FD
:105370000C94DA082091F801922F96959827990FAE
:10538000822F8170892B8093F8018E7F91E009F440
:1053900090E08091F80190FB80F98093F8010E94E1
:1053A000EB208091F80186950C94DA0804D068947B
:1053B000B1118DC0089570D088F09F5790F0B92F2B
:1053C0009927B751A0F0D1F0660F771F881F991F5A
:1053D0001AF0BA95C9F712C0B13081F077D0B1E0B8
:1053E000089574C0672F782F8827B85F39F0B93FC8
:1053F000CCF3869577956795B395D9F73EF490955C
:105400008095709561957F4F8F4F9F4F0895E894D9
:1054100009C097FB3EF490958095709561957F4FFC
:105420008F4F9F4F9923A9F0F92F96E9BB279395AA
:10543000F695879577956795B795F111F8CFFAF4BA
:10544000BB0F11F460FF1BC06F5F7F4F8F4F9F4FEB
:1054500016C0882311F096E911C0772321F09EE849
:10546000872F762F05C0662371F096E8862F70E0AF
:1054700060E02AF09A95660F771F881FDAF7880F89
:105480009695879597F9089557FD9058440F551FA5
:1054900059F05F3F71F04795880F97FB991F61F0B6
:1054A0009F3F79F087950895121613061406551F2D
:1054B000F2CF4695F1DF08C0161617061806991F99
:1054C000F1CF86957105610508940895E894BB278E
:1054D00066277727CB0197F908950BD078C069D05C
:1054E00028F06ED018F0952309F05AC05FC011243F
:1054F000EECFCADFA0F3959FD1F3950F50E0551F73
:10550000629FF001729FBB27F00DB11D639FAA2718
:10551000F00DB11DAA1F649F6627B00DA11D661F67
:10552000829F2227B00DA11D621F739FB00DA11D88
:10553000621F839FA00D611D221F749F3327A00D42
:10554000611D231F849F600D211D822F762F6A2FDE
:1055500011249F5750408AF0E1F088234AF0EE0F63
:10556000FF1FBB1F661F771F881F91505040A9F770
:105570009E3F510570F014C0AACF5F3FECF3983EF8
:10558000DCF3869577956795B795F795E7959F5FD7
:10559000C1F7FE2B880F911D9695879597F9089571
:1055A00097F99F6780E870E060E008959FEF80ECD6
:1055B000089500240A941616170618060906089579
:1055C00000240A9412161306140605060895092EDF
:1055D0000394000C11F4882352F0BB0F40F4BF2B4E
:1055E00011F460FF04C06F5F7F4F8F4F9F4F08958E
:1055F000991B79E004C0991F961708F0961B881F25
:105600007A95C9F78095089597FB072E16F40094B4
:1056100007D077FD09D00E941E2B07FC05D03EF471
:10562000909581959F4F0895709561957F4F08954E
:10563000EE0FFF1F0590F491E02D0994AA1BBB1BF0
:1056400051E107C0AA1FBB1FA617B70710F0A61B82
:10565000B70B881F991F5A95A9F780959095BC01A3
:10566000CD010895F999FECF92BD81BDF89A992791
:1056700080B50895A8E1B0E042E050E00C94552BCD
:10568000262FF999FECF1FBA92BD81BD20BD0FB65E
:10569000F894FA9AF99A0FBE019608950E94402B49
:1056A000272F0C94412BDC01CB01FC01F999FECF93
:1056B00006C0F2BDE1BDF89A319600B40D9241509A
:0A56C0005040B8F70895F894FFCFAA
:1056CA00050909FA09D709A30970090101B70128CF
:1056DA0008140A321E404D3622396D042004EA03AA
:1056EA00C8038F0302031B0334034D036D03010236
:0856FA0003040506070809007E
:00000001FF
